:100000000C942A000C9447000C9447000C94470071
:100010000C9447000C9447000C9447000C94470044
:100020000C9447000C9447000C9447000C94470034
:100030000C9447000C9447000C9447000C94470024
:100040000C9447000C9447000C9447000C94470014
:100050000C94470011241FBECFE5D8E0DEBFCDBF12
:1000600011E0A0E6B0E0ECECF1E102C005900D92E9
:10007000AE3EB107D9F722E0AEEEB1E001C01D926D
:10008000AA33B207E1F70E94BB040C94E4080C9475
:10009000000086B1876086B93E9A3D98379A369AB5
:1000A000089597B1907F97B997B1892B87B9369A00
:1000B0003699FECF84B125B190E0922B089589E660
:1000C00085BD81E683BF089510BC89E189B98AB1F5
:1000D00088618AB980B58E6880BD08955D9BFECF2A
:1000E0008CB90895EF92FF920F931F93CF93DF93F4
:1000F0008C017C01C0E0D0E006C0F70181917F0156
:100100000E946E002196F80101900020E9F73197D6
:10011000E01BF10BCE17DF0780F3DF91CF911F912A
:100120000F91FF90EF900895CF93DF93CDB7DEB797
:100130002A970FB6F894DEBF0FBECDBF4AE0BE01CE
:100140006F5F7F4F0E94AF08CE0101960E94720040
:100150002A960FB6F894DEBF0FBECDBFDF91CF91C8
:1001600008951092050210920402A998A99A45E3F5
:100170004A95F1F70000A99821E030E033C08EB530
:1001800082608EBD829B23C01DBC1CBC8EB582606C
:100190008EBD0BC08CB59DB58938934130F01EBC27
:1001A0001DBC1CBC8FE690E008958299F3CF1EBC65
:1001B0008CB59DB5969587959093FF018093FE0130
:1001C0001DBC1CBC30930502209304020BC08CB5EF
:1001D0009DB58131974230F01EBC1DBC1CBC80E730
:1001E00090E008958091040290910502892B39F2E4
:1001F0006091FE017091FF0180E090E00E948C0709
:1002000029E23CE54FE05DE30E941A0820E030E07F
:1002100040E05FE30E941A080E945D07CB01089549
:100220001092030210920202A898A89A45E34A95F8
:10023000F1F70000A89821E030E033C08EB582606D
:100240008EBDB29B23C01DBC1CBC8EB582608EBD12
:100250000BC08CB59DB58938934130F01EBC1DBCD8
:100260001CBC8FE690E00895B299F3CF1EBC8CB50C
:100270009DB5969587959093FD018093FC011DBCDB
:100280001CBC30930302209302020BC08CB59DB5B9
:100290008131974230F01EBC1DBC1CBC80E790E051
:1002A00008958091020290910302892B39F26091A6
:1002B000FC017091FD0180E090E00E948C0729E232
:1002C0003CE54FE05DE30E941A0820E030E040E0AA
:1002D0005FE30E941A080E945D07CB010895109207
:1002E000010210920002AA98AA9A45E34A95F1F7F2
:1002F0000000AA9821E030E033C08EB582608EBD48
:10030000839B23C01DBC1CBC8EB582608EBD0BC000
:100310008CB59DB58938934130F01EBC1DBC1CBC0A
:100320008FE690E008958399F3CF1EBC8CB59DB500
:10033000969587959093FB018093FA011DBC1CBC98
:1003400030930102209300020BC08CB59DB5813122
:10035000974230F01EBC1DBC1CBC80E790E00895A5
:100360008091000290910102892B39F26091FA018B
:100370007091FB0180E090E00E948C0729E23CE54F
:100380004FE05DE30E941A0820E030E040E05FE3C8
:100390000E941A080E945D07CB0108957F928F92F8
:1003A0009F92AF92BF92CF92DF92EF92FF920F9304
:1003B0001F93CF93DF930AE212E00F2EF0E18F2E0E
:1003C000F2E09F2EF02DC0E0D0E0712CE12CF12C5A
:1003D000C12CD12CAA24A394B12C872D0E945100AA
:1003E000F801219131918F018217930748F4CC0EC7
:1003F000DD1EFFEFEF1AFF0AF401B182A08203C0F5
:10040000F4011182108273942296F2E08F0E911CF7
:1004100088E07812E2CFE114F10449F0C601B70197
:100420000E94870870930F0260930E0206C084E654
:1004300090E090930F0280930E02809110029091B1
:100440001102009731F420911E0230911F02232BDC
:1004500089F090930D0280930C0280911E0290917E
:100460001F0290930902809308028CE790E00E949B
:1004700072001CC080910E0290910F02843691058B
:10048000A9F080910C0290910D02019731F08091BA
:10049000080290910902019749F48091F40190912A
:1004A000F50101969093F5018093F4012091F401F8
:1004B0003091F5018091700090917100821793073F
:1004C00084F410920D0210920C0210920902109204
:1004D00008021092F5011092F4018CE890E00E945D
:1004E0007200E6E0EE16F10484F08091F001909144
:1004F000F10101969093F1018093F00181E090E089
:100500009093EF018093EE0108C01092F1011092D8
:10051000F0011092EF011092EE01DF91CF911F9147
:100520000F91FF90EF90DF90CF90BF90AF909F9092
:100530008F907F9008950E946F0190936300809345
:1005400062000E94B10090936700809366000E9451
:100550001001909365008093640089E990E00E9407
:10056000720080916200909163000E94940085EB7C
:1005700090E00E94720008958F929F92AF92BF9276
:10058000CF92DF92EF92FF9260917A0070917B00A0
:1005900080910E0290910F02681B790B072E000CC0
:1005A000880B990B0E948E076B017C0160932602D9
:1005B0007093270280932802909329022091F601DC
:1005C0003091F7014091F8015091F9010E947706AE
:1005D0002091720030917300409174005091750029
:1005E0000E941A084B015C0120917600309177003F
:1005F0004091780050917900C701B6010E941A0815
:100600009B01AC01C501B4010E94780660932002F1
:10061000709321028093220290932302C092F601EC
:10062000D092F701E092F801F092F9010E9456078A
:100630009B0170930B0260930A026F3F710551F0AA
:100640004CF08FEF90E090930B0280930A022FEF13
:1006500030E013C021303F4F4CF481E09FEF909386
:100660000B0280930A0221E03FEF16C020910A029C
:1006700030910B02121613066CF48FEF90E09093FA
:10068000250280932402821B930B90930702809390
:10069000060219C033236CF421503F4F30932502DA
:1006A000209324028FEF90E090930702809306023C
:1006B0000AC088EC90E09093070280930602909322
:1006C000250280932402FF90EF90DF90CF90BF909F
:1006D000AF909F908F900895BC01990F880B990B54
:1006E0000E948E0723ED3EED40E45FE30E941A086E
:1006F00023E333E347EE51E40E9478060E94560755
:10070000CB010895CF93DF93EB01181619061CF463
:100710000E946C0308C09195819591090E946C0319
:100720009195819591091C161D061CF4CCBF9498D7
:1007300004C0C150DF4FCCBF949A181619061CF4A0
:1007400083BD959804C0959A81509F4F83BDDF91DA
:10075000CF9108959093070280930602662777272A
:10076000681B790B70932502609324020E94820318
:100770000895BC0188279927861B970B9093070241
:100780008093060270932502609324020E948203E4
:10079000089560E070E080E090E00E948203089598
:1007A0004F925F926F927F928F929F92AF92BF9281
:1007B000CF92DF92EF92FF921F93CF93DF93CDB74B
:1007C000DEB7A4970FB6F894DEBF0FBECDBF5C01B5
:1007D00086E291E00E94720084E690E00E94AA0303
:1007E000CE0101964C016C01F12C8F2D0E9451001D
:1007F000F601918380838F2D0E945100F60193832F
:100800008283F394F4E0CF0ED11C28E0F212EDCFF6
:1008100088EE93E0A89EB001A99E700DB89E700D61
:100820001124072E000C880B990B0E948E0720E0E4
:1008300030E040E250E40E94E4060E9456073B018B
:10084000672B09F46FC086E291E00E94720085EB8D
:1008500090E00E947200640110E0812F0E9451001C
:100860005601F601208131818217930730F4812FE0
:100870000E945100F60191838083812F0E945100D4
:10088000F501228133812817390730F4812F0E9426
:100890005100F501938382831F5FF4E0CF0ED11CDA
:1008A0001830D9F621E0621A710869F63BC0F401EC
:1008B000E080F180628173816E197F09072E000C40
:1008C000880B990B0E948E07A30192010E941A08BF
:1008D00069A37AA38BA39CA3B701FF0C880B990B88
:1008E0000E948E079B01AC0169A17AA18BA19CA1FA
:1008F0000E9478060E945607F601619371936F017A
:10090000F4E08F0E911CA814B90489F60E94C90363
:100910002FEF83ED90E3215080409040E1F700C03D
:10092000000013C040906A0050906B0060906C0013
:1009300070906D000F2EFAE2CF2EF2E0DF2EF02D38
:100940005E01E1E2AE0EB11CB2CFA4960FB6F894F0
:10095000DEBF0FBECDBFDF91CF911F91FF90EF9013
:10096000DF90CF90BF90AF909F908F907F906F90CF
:100970005F904F9008950E9449000E945F000E947E
:10098000640084B3876084BB81B3837F81BBBA98E2
:1009900080EB81BB88E087BB82E391E00E9472001C
:1009A00085EB90E00E94720082E090E00E94D0030C
:1009B00084E491E00E94720085EB90E00E94720056
:1009C000C0E1D2E00E94CE0185E591E00E94720074
:1009D000609126027091270280912802909129024D
:1009E0000E945607CB010E94940085EB90E00E9484
:1009F00072002091F0013091F10180916E00909190
:100A00006F008217930794F40E94CE018091EE014B
:100A10009091EF01019751F40E94C9030E94CE0109
:100A20008091EE019091EF010197B1F380910E0258
:100A300090910F028436910549F10E94BC026091A9
:100A400024027091250280910602909107020E9473
:100A500082038DE591E00E947200809106029091E0
:100A600007020E94940085EB90E00E94720084E6E9
:100A700091E00E94720080912402909125020E94D0
:100A8000940085EB90E00E9472009CCF80910C0254
:100A900090910D028130910551F58091080290915D
:100AA0000902892B09F000C18CE691E00E947200D6
:100AB0008E819F81019771F08DE791E00E94720015
:100AC00086E990E00E94B9030E94CE018E819F8149
:100AD000019791F70E94BC02609124027091250257
:100AE00080910602909107020E9482036BCF892BAE
:100AF00009F0DAC0809108029091090281309105D5
:100B000019F580E991E00E9472008E819F81019722
:100B100071F082EA91E00E94720086E990E00E9402
:100B2000AA030E94CE018E819F81019791F70E94B6
:100B3000BC0260912402709125028091060290917E
:100B400007020E9482033ECF892B09F0ADC00E94AC
:100B50009B0280916800909169002091660030911D
:100B600067002817390738F020916400309165003C
:100B70002817390708F566E970E086E990E00E94D9
:100B800082032FEF81EE94E0215080409040E1F706
:100B900000C0000080910E0290910F0284369105F2
:100BA00009F010CF0E94CE0180910E0290910F02A9
:100BB00084369105B9F306CF20916200309163002D
:100BC00080916000909161002817390718F40E9405
:100BD000CE01F8CE86EB91E00E9472008091F20186
:100BE0009091F301892BC1F04BC062ED70E088EC6D
:100BF00090E00E9482030E94CE010E949B022091FD
:100C0000620030916300809160009091610028172C
:100C1000390710F40E94CE0180910E0290910F02CC
:100C20008436910511F30E94BC02609124027091F8
:100C3000250280910602909107020E948203809112
:100C4000F2019091F30101969093F3018093F201E8
:100C5000B9CE68EC70E088EC90E00E9482030E94BC
:100C6000CE010E949B02209162003091630080912E
:100C70006000909161002817390710F40E94CE019E
:100C800080910E0290910F028436910511F30E941B
:100C9000BC0260912402709125028091060290911D
:100CA00007020E9482038ECE83EC91E00E947200C4
:100CB0008E819F81019771F087ED91E00E94720013
:100CC00086E990E00E94AA030E94CE018E819F8156
:100CD000019791F70E94BC02609124027091250255
:100CE00080910602909107020E9482036BCE5058B9
:100CF000BB27AA270E948F060C94E0070E94D20708
:100D000038F00E94D90720F039F49F3F19F426F4F7
:100D10000C94CF070EF4E095E7FB0C94C907E92F7C
:100D20000E94F10758F3BA17620773078407950703
:100D300020F079F4A6F50C9413080EF4E0950B2E30
:100D4000BA2FA02D0B01B90190010C01CA01A0011D
:100D50001124FF27591B99F0593F50F4503E68F178
:100D60001A16F040A22F232F342F4427585FF3CFB9
:100D7000469537952795A795F0405395C9F77EF48A
:100D80001F16BA0B620B730B840BBAF09150A1F0D3
:100D9000FF0FBB1F661F771F881FC2F70EC0BA0F59
:100DA000621F731F841F48F4879577956795B795E1
:100DB000F7959E3F08F0B0CF9395880F08F09927DC
:100DC000EE0F9795879508950E94F8060C94E0071A
:100DD0000E94D90758F00E94D20740F029F45F3FE3
:100DE00029F00C94C90751110C9414080C94CF07E6
:100DF0000E94F10768F39923B1F3552391F3951BF2
:100E0000550BBB27AA2762177307840738F09F5F2B
:100E10005F4F220F331F441FAA1FA9F335D00E2E98
:100E20003AF0E0E832D091505040E695001CCAF705
:100E30002BD0FE2F29D0660F771F881FBB1F2617C8
:100E400037074807AB07B0E809F0BB0B802DBF019F
:100E5000FF2793585F4F3AF09E3F510578F00C946E
:100E6000C9070C9414085F3FE4F3983ED4F38695C9
:100E700077956795B795F7959F5FC9F7880F911D8F
:100E80009695879597F90895E1E0660F771F881F7B
:100E9000BB1F621773078407BA0720F0621B730B2E
:100EA000840BBA0BEE1F88F7E09508950E945D074A
:100EB0006894B1110C94140808950E94F90788F001
:100EC0009F5798F0B92F9927B751B0F0E1F0660F0E
:100ED000771F881F991F1AF0BA95C9F714C0B1304F
:100EE00091F00E941308B1E008950C941308672F45
:100EF000782F8827B85F39F0B93FCCF3869577957E
:100F00006795B395D9F73EF4909580957095619566
:100F10007F4F8F4F9F4F0895E89409C097FB3EF491
:100F200090958095709561957F4F8F4F9F4F992336
:100F3000A9F0F92F96E9BB279395F69587957795B4
:100F40006795B795F111F8CFFAF4BB0F11F460FF74
:100F50001BC06F5F7F4F8F4F9F4F16C0882311F0CC
:100F600096E911C0772321F09EE8872F762F05C0E0
:100F7000662371F096E8862F70E060E02AF09A957B
:100F8000660F771F881FDAF7880F9695879597F970
:100F9000089597F99F6780E870E060E008959FEFFB
:100FA00080EC089500240A94161617061806090600
:100FB000089500240A9412161306140605060895CF
:100FC000092E0394000C11F4882352F0BB0F40F457
:100FD000BF2B11F460FF04C06F5F7F4F8F4F9F4F97
:100FE000089557FD9058440F551F59F05F3F71F019
:100FF0004795880F97FB991F61F09F3F79F0879580
:101000000895121613061406551FF2CF4695F1DF08
:1010100008C0161617061806991FF1CF8695710598
:10102000610508940895E894BB2766277727CB01CC
:1010300097F908950E942D080C94E0070E94D207AA
:1010400038F00E94D90720F0952311F00C94C907BD
:101050000C94CF0711240C9414080E94F10770F32C
:10106000959FC1F3950F50E0551F629FF001729F4D
:10107000BB27F00DB11D639FAA27F00DB11DAA1F5C
:10108000649F6627B00DA11D661F829F2227B00DA9
:10109000A11D621F739FB00DA11D621F839FA00D34
:1010A000611D221F749F3327A00D611D231F849F84
:1010B000600D211D822F762F6A2F11249F575040DB
:1010C0009AF0F1F088234AF0EE0FFF1FBB1F661F56
:1010D000771F881F91505040A9F79E3F510580F01F
:1010E0000C94C9070C9414085F3FE4F3983ED4F3C2
:1010F000869577956795B795F795E7959F5FC1F7C3
:10110000FE2B880F911D9695879597F9089597FB6B
:10111000072E16F4009407D077FD09D00E949B0893
:1011200007FC05D03EF4909581959F4F08957095EA
:1011300061957F4F0895AA1BBB1B51E107C0AA1FF1
:10114000BB1FA617B70710F0A61BB70B881F991F68
:101150005A95A9F780959095BC01CD010895BB27BC
:101160004A3031F4992322F4BDE2909581959F4F46
:101170000C94BB08BB27FB015527AA27880F991F92
:10118000AA1FA41710F0A41B83955051B9F7A05DB6
:10119000AA3308F0A95DA193009779F7B111B19333
:1011A0001192CB010C94D408DC01FC01672F7191E2
:1011B0007723E1F7329704C07C916D93708362913D
:0C11C000AE17BF07C8F30895F894FFCFE6
:1011CC0014006F006F006F0010003333B33E140037
:1011DC000F000000644200003C420700416375743C
:1011EC00652064657465637465640A004163757495
:1011FC00652052657365740A004644697374616EA8
:10120C006365203D20000A4C656674536F6E6172F5
:10121C00203A2000200A000A5269676874536F6EE6
:10122C0061723A20000A46726F6E74536F6E61726F
:10123C003A200057616C6C206973206E6561720AEC
:10124C000057616C6C2052756E6E696E670A0057A0
:10125C00616C6C206973206661720A005265766558
:10126C007273650A00526F746174650A00626C696E
:10127C006E642072756E0A007363616E6E696E67C0
:10128C002072756E0A0043616C6962726174696EDA
:10129C00670043616C6962726174696F6E2053748C
:1012AC006172740043616C6962726174696F6E2063
:1012BC00446F6E65004552524F523A20004C6566A1
:1012CC00743A200052696768743A20004C65667461
:1012DC00204163757465205475726E0A004C656606
:1012EC0074204163757465205475726E696E670065
:1012FC005269676874204163757465205475726E09
:10130C000A005269676874204163757465205475CE
:10131C00726E696E67004C696E6520676170207231
:10132C00756E0052696768742064656661756C74CB
:10133C00207475726E0A0052696768742064656661
:0E134C0061756C74205475726E696E670000D6
:00000001FF
