S010000042555020323031392E7372656341
S11300000C942A000C9447000C9447000C9447006D
S11300100C9447000C9447000C9447000C94470040
S11300200C9447000C9447000C9447000C94470030
S11300300C9447000C9447000C9447000C94470020
S11300400C9447000C9447000C9447000C94470010
S11300500C94470011241FBECFE5D8E0DEBFCDBF0E
S113006011E0A0E6B0E0EAE8FEE002C005900D92DF
S1130070A435B107D9F721E0A4E5B1E001C01D9290
S1130080A039B207E1F70E9485030C9443070C944E
S1130090000086B1876086B93E9A3D98379A369AB1
S11300A0089597B1907F97B997B1892B87B9369AFC
S11300B03699FECF84B125B190E0922B089589E65C
S11300C085BD81E683BF8FB581688FBD8EB589609C
S11300D08EBD8FB581628FBD8EB589608EBD08954A
S11300E010BC89E189B98AB188618AB980B58E6802
S11300F080BD08955D9BFECF8CB90895EF92FF9269
S11301000F931F93CF93DF938C017C01C0E0D0E069
S113011006C0F70181917F010E947A002196F801BF
S113012001900020E9F73197E01BF10BCE17DF07B0
S113013080F3DF91CF911F910F91FF90EF9008957D
S1130140CF93DF93CDB7DEB72A970FB6F894DEBF0F
S11301500FBECDBF4AE0BE016F5F7F4F0E940E0706
S1130160CE0101960E947E002A960FB6F894DEBF57
S11301700FBECDBFDF91CF9108957F928F929F9252
S1130180AF92BF92CF92DF92EF92FF920F931F93A1
S1130190CF93DF9300E811E00F2EF6E68F2EF1E007
S11301A09F2EF02DC0E0D0E0712CE12CF12CC12C5D
S11301B0D12CAA24A394B12C872D0E945100F801BC
S11301C0219131918F018217930748F4CC0EDD1EE3
S11301D0FFEFEF1AFF0AF401B182A08203C0F40119
S11301E01182108273942296F2E08F0E911C88E0A3
S11301F07812E2CFE114F10449F0C601B7010E947C
S1130200E606709365016093640106C084E690E09D
S113021090936501809364018091660190916701D8
S1130220009731F42091740130917501232B89F0EA
S113023090936301809362018091740190917501A0
S113024090935F0180935E0180E790E00E947E00BE
S11302501CC0809164019091650184369105A9F0D8
S11302608091620190916301019731F080915E0168
S113027090915F01019749F4809156019091570143
S11302800196909357018093560120915601309125
S1130290570180916400909165008217930784F45C
S11302A0109263011092620110925F0110925E013C
S11302B0109257011092560180E890E00E947E004F
S11302C0E8E0EE16F10451F4809154019091550147
S11302D00196909355018093540104C010925501E6
S11302E010925401DF91CF911F910F91FF90EF90E5
S11302F0DF90CF90BF90AF909F908F907F900895A4
S11303008F929F92AF92BF92CF92DF92EF92FF9221
S113031060916E0070916F0080916401909165010D
S1130320681B790B072E000C880B990B0E94ED05B6
S11303306B017C0160937C0170937D0180937E014D
S113034090937F01209158013091590140915A01B5
S113035050915B010E94D6042091660030916700A1
S113036040916800509169000E9479064B015C013C
S113037020916A0030916B0040916C0050916D00A7
S1130380C701B6010E9479069B01AC01C501B40105
S11303900E94D7046093760170937701809378016B
S11303A090937901C0925801D0925901E0925A0178
S11303B0F0925B010E94B5059B017093610160930B
S11303C060016F3F710551F04CF08FEF90E0909316
S11303D06101809360012FEF30E013C021303F4F63
S11303E04CF481E09FEF909361018093600121E0E0
S11303F03FEF16C02091600130916101121613067F
S11304006CF48FEF90E090937B0180937A01821BD0
S1130410930B90935D0180935C0119C033236CF4BA
S113042021503F4F30937B0120937A018FEF90E06E
S113043090935D0180935C010AC088EC90E09093F6
S11304405D0180935C0190937B0180937A01FF901E
S1130450EF90DF90CF90BF90AF909F908F900895D2
S1130460BC01990F880B990B0E94ED0523ED3EED1D
S113047040E45FE30E94790623E333E347EE51E46B
S11304800E94D7040E94B505CB010895CF93DF9352
S1130490EB01181619061CF40E94300208C091954D
S11304A0819591090E9430029195819591091C16BC
S11304B01D0624F4CCBF19BC18BC06C01CBED195C3
S11304C0C195D109D9BDC8BD1816190624F49BBD20
S11304D08ABD13BC06C01BBC1ABC919581959109B9
S11304E083BDDF91CF91089590935D0180935C016A
S11304F066277727681B790B70937B0160937A01D9
S11305000E9446020895BC0188279927861B970BF1
S113051090935D0180935C0170937B0160937A01F9
S11305200E944602089560E070E080E090E00E943E
S1130530460208954F925F926F927F928F929F929C
S1130540AF92BF92CF92DF92EF92FF921F93CF931D
S1130550DF93CDB7DEB7A4970FB6F894DEBF0FBE16
S1130560CDBF5C018DE890E00E947E0084E690E0BF
S11305700E947402CE0101964C016C01F12C8F2D66
S11305800E945100F601918380838F2D0E945100B7
S1130590F60193838283F394F4E0CF0ED11C28E018
S11305A0F212EDCF88EE93E0A89EB001A99E700DE3
S11305B0B89E700D1124072E000C880B990B0E9415
S11305C0ED0520E030E040E250E40E9443050E9443
S11305D0B5053B01672B09F46FC08DE890E00E94DC
S11305E07E008EE790E00E947E00640110E0812F7F
S11305F00E9451005601F601208131818217930730
S113060030F4812F0E945100F60191838083812F61
S11306100E945100F501228133812817390730F4F3
S1130620812F0E945100F501938382831F5FF4E0C0
S1130630CF0ED11C1830D9F621E0621A710869F680
S11306403BC0F401E080F180628173816E197F09FF
S1130650072E000C880B990B0E94ED05A301920153
S11306600E94790669A37AA38BA39CA3B701FF0C0C
S1130670880B990B0E94ED059B01AC0169A17AA13D
S11306808BA19CA10E94D7040E94B505F601619339
S113069071936F01F4E08F0E911CA814B90489F6CC
S11306A00E9493022FEF83ED90E32150804090400D
S11306B0E1F700C0000013C040906000509061005A
S11306C060906200709063000F2EF0E8CF2EF1E08E
S11306D0DF2EF02D5E01E1E2AE0EB11CB2CFA49686
S11306E00FB6F894DEBF0FBECDBFDF91CF911F913F
S11306F0FF90EF90DF90CF90BF90AF909F908F903E
S11307007F906F905F904F9008950E9449000E94DF
S11307105F000E94700080EB81BB88E087BB89E9A1
S113072090E00E947E008EE790E00E947E0084E0CC
S113073090E00E949A028BEA90E00E947E008EE78D
S113074090E00E947E00C6E6D1E00E94BD008CEBE2
S113075090E00E947E0060917C0170917D01809107
S11307607E0190917F010E94B505CB010E94A000FB
S11307708EE790E00E947E008E859F85019709F0A8
S113078041C066E970E086E990E00E9446022FEFDE
S113079081EE94E0215080409040E1F700C00000D9
S11307A00E94BD0080916401909165018436910599
S11307B049F458C084EC90E00E947E000E947402C8
S11307C00E94BD008E819F81892BA1F78885998520
S11307D0892B81F784EC90E00E947E000E947402D1
S11307E00E94BD008E819F810197A1F70E94800124
S11307F060917A0170917B0180915C0190915D011F
S11308000E944602809164019091650184369105AD
S113081049F10E94800160917A0170917B0180917D
S11308205C0190915D010E94460288ED90E00E9477
S11308307E0080915C0190915D010E94A0008EE792
S113084090E00E947E008FED90E00E947E008091F7
S11308507A0190917B010E94A0008EE790E00E94B3
S11308607E0073CF80916201909163018130910584
S113087041F580915E0190915F01892B09F075C06B
S113088087EE90E00E947E008E819F81019761F047
S113089088EF90E00E947E000E9483020E94BD00C7
S11308A08E819F810197A1F70E94800160917A0156
S11308B070917B0180915C0190915D010E944602E0
S11308C044CF892B09F051C080915E0190915F0162
S11308D08130910509F58BE091E00E947E008E81C4
S11308E09F81019761F084EC90E00E947E000E9459
S11308F074020E94BD008E819F810197A1F70E941E
S1130900800160917A0170917B0180915C019091EA
S11309105D010E94460219CF892B39F58DE191E0E2
S11309200E947E0080916401909165018436910556
S113093079F468EC70E088EC90E00E9446020E9432
S1130940BD0080916401909165018436910589F31D
S11309500E94800160917A0170917B0180915C0119
S113096090915D010E944602F0CE8AE291E00E94DD
S11309707E008E819F81019761F08EE391E00E9459
S11309807E000E9474020E94BD008E819F810197A7
S1130990A1F70E94800160917A0170917B0180919E
S11309A05C0190915D010E944602CFCE5058BB2756
S11309B0AA270E94EE040C943F060E94310638F0E8
S11309C00E94380620F039F49F3F19F426F40C9461
S11309D02E060EF4E095E7FB0C942806E92F0E94FE
S11309E0500658F3BA17620773078407950720F077
S11309F079F4A6F50C9472060EF4E0950B2EBA2F3A
S1130A00A02D0B01B90190010C01CA01A001112410
S1130A10FF27591B99F0593F50F4503E68F11A16BC
S1130A20F040A22F232F342F4427585FF3CF46954D
S1130A3037952795A795F0405395C9F77EF41F166F
S1130A40BA0B620B730B840BBAF09150A1F0FF0F39
S1130A50BB1F661F771F881FC2F70EC0BA0F621F25
S1130A60731F841F48F4879577956795B795F79515
S1130A709E3F08F0B0CF9395880F08F09927EE0FAA
S1130A809795879508950E9457050C943F060E94F8
S1130A90380658F00E94310640F029F45F3F29F0EF
S1130AA00C94280651110C9473060C942E060E9483
S1130AB0500668F39923B1F3552391F3951B550B15
S1130AC0BB27AA2762177307840738F09F5F5F4F1D
S1130AD0220F331F441FAA1FA9F335D00E2E3AF05C
S1130AE0E0E832D091505040E695001CCAF72BD074
S1130AF0FE2F29D0660F771F881FBB1F26173707C5
S1130B004807AB07B0E809F0BB0B802DBF01FF27F6
S1130B1093585F4F3AF09E3F510578F00C942806A5
S1130B200C9473065F3FE4F3983ED4F3869577956F
S1130B306795B795F7959F5FC9F7880F911D9695AF
S1130B40879597F90895E1E0660F771F881FBB1F0B
S1130B50621773078407BA0720F0621B730B840BB8
S1130B60BA0BEE1F88F7E09508950E94BC056894BF
S1130B70B1110C94730608950E94580688F09F578B
S1130B8098F0B92F9927B751B0F0E1F0660F771FAD
S1130B90881F991F1AF0BA95C9F714C0B13091F0A3
S1130BA00E947206B1E008950C947206672F782FA4
S1130BB08827B85F39F0B93FCCF386957795679568
S1130BC0B395D9F73EF490958095709561957F4FD4
S1130BD08F4F9F4F0895E89409C097FB3EF490957A
S1130BE08095709561957F4F8F4F9F4F9923A9F002
S1130BF0F92F96E9BB279395F69587957795679591
S1130C00B795F111F8CFFAF4BB0F11F460FF1BC0D4
S1130C106F5F7F4F8F4F9F4F16C0882311F096E967
S1130C2011C0772321F09EE8872F762F05C0662315
S1130C3071F096E8862F70E060E02AF09A95660FCE
S1130C40771F881FDAF7880F9695879597F9089587
S1130C5097F99F6780E870E060E008959FEF80EC6B
S1130C60089500240A94161617061806090608950E
S1130C7000240A9412161306140605060895092E74
S1130C800394000C11F4882352F0BB0F40F4BF2BE3
S1130C9011F460FF04C06F5F7F4F8F4F9F4F089523
S1130CA057FD9058440F551F59F05F3F71F0479519
S1130CB0880F97FB991F61F09F3F79F087950895FE
S1130CC0121613061406551FF2CF4695F1DF08C01D
S1130CD0161617061806991FF1CF8695710561053A
S1130CE008940895E894BB2766277727CB0197F9E2
S1130CF008950E948C060C943F060E94310638F039
S1130D000E94380620F0952311F00C9428060C94C8
S1130D102E0611240C9473060E94500670F3959FBE
S1130D20C1F3950F50E0551F629FF001729FBB27DE
S1130D30F00DB11D639FAA27F00DB11DAA1F649F7A
S1130D406627B00DA11D661F829F2227B00DA11D2D
S1130D50621F739FB00DA11D621F839FA00D611DB3
S1130D60221F749F3327A00D611D231F849F600DD4
S1130D70211D822F762F6A2F11249F5750409AF0FD
S1130D80F1F088234AF0EE0FFF1FBB1F661F771F89
S1130D90881F91505040A9F79E3F510580F00C9454
S1130DA028060C9473065F3FE4F3983ED4F38695CB
S1130DB077956795B795F795E7959F5FC1F7FE2BF4
S1130DC0880F911D9695879597F9089597FB072E9F
S1130DD016F4009407D077FD09D00E94FA0607FCA8
S1130DE005D03EF4909581959F4F08957095619537
S1130DF07F4F0895AA1BBB1B51E107C0AA1FBB1F4D
S1130E00A617B70710F0A61BB70B881F991F5A9592
S1130E10A9F780959095BC01CD010895BB274A3070
S1130E2031F4992322F4BDE2909581959F4F0C945F
S1130E301A07BB27FB015527AA27880F991FAA1F4A
S1130E40A41710F0A41B83955051B9F7A05DAA33E1
S1130E5008F0A95DA193009779F7B111B1931192AC
S1130E60CB010C943307DC01FC01672F71917723CC
S1130E70E1F7329704C07C916D9370836291AE1751
S10D0E80BF07C8F30895F894FFCFEC
S1130E8A3333B33E0F000000644200003C420700C3
S1130E9A41637574652064657465637465640A00E6
S1130EAA41637574652052657365740A0043616C05
S1130EBA6962726174696E670043616C6962726126
S1130ECA74696F6E2053746172740043616C696251
S1130EDA726174696F6E20446F6E65004552524F99
S1130EEA523A200052696768742041637574652018
S1130EFA5475726E696E67004C6566743A200052C6
S1130F0A696768743A20004C656674204163757495
S1130F1A65205475726E0A004C65667420416375C7
S1130F2A7465205475726E696E67005269676874D5
S1130F3A204163757465205475726E0A004C696E9B
S1130F4A65206761702072756E0052696768742043
S1130F5A64656661756C74207475726E0A005269F0
S1130F6A6768742064656661756C74205475726E62
S1070F7A696E670031
S9030000FC
