:100000000C942A000C9447000C9447000C94470071
:100010000C9447000C9447000C9447000C94470044
:100020000C9447000C9447000C9447000C94470034
:100030000C9447000C9447000C9447000C94470024
:100040000C9447000C9447000C9447000C94470014
:100050000C94470011241FBECFE5D8E0DEBFCDBF12
:1000600011E0A0E6B0E0E8ECFEE002C005900D92E1
:10007000A635B107D9F721E0A6E5B1E001C01D9290
:10008000A439B207E1F70E947D030C9462070C9437
:10009000000086B1876086B93E9A3D98379A369AB5
:1000A000089597B1907F97B997B1892B87B9369A00
:1000B0003699FECF84B125B190E0922B089589E660
:1000C00085BD81E683BF089510BC89E189B98AB1F5
:1000D00088618AB980B58E6880BD08955D9BFECF2A
:1000E0008CB90895EF92FF920F931F93CF93DF93F4
:1000F0008C017C01C0E0D0E006C0F70181917F0156
:100100000E946E002196F80101900020E9F73197D6
:10011000E01BF10BCE17DF0780F3DF91CF911F912A
:100120000F91FF90EF900895CF93DF93CDB7DEB797
:100130002A970FB6F894DEBF0FBECDBF4AE0BE01CE
:100140006F5F7F4F0E942D07CE0101960E947200C3
:100150002A960FB6F894DEBF0FBECDBFDF91CF91C8
:1001600008957F928F929F92AF92BF92CF92DF922B
:10017000EF92FF920F931F93CF93DF9304E811E068
:100180000F2EFAE68F2EF1E09F2EF02DC0E0D0E08A
:10019000712CE12CF12CC12CD12CAA24A394B12CCC
:1001A000872D0E945100F801219131918F01821712
:1001B000930748F4CC0EDD1EFFEFEF1AFF0AF4019F
:1001C000B182A08203C0F40111821082739422963E
:1001D000F2E08F0E911C88E07812E2CFE114F10476
:1001E00049F0C601B7010E94050770936901609349
:1001F000680106C084E690E09093690180936801ED
:1002000080916A0190916B01009731F420917801FF
:1002100030917901232B89F09093670180936601D7
:1002200080917801909179019093630180936201AC
:1002300082E790E00E9472001CC08091680190915A
:10024000690184369105A9F080916601909167015A
:10025000019731F08091620190916301019749F417
:1002600080915A0190915B01019690935B0180937C
:100270005A0120915A0130915B0180916600909162
:1002800067008217930784F4109267011092660149
:10029000109263011092620110925B0110925A0158
:1002A00082E890E00E947200E6E0EE16F10484F02D
:1002B0008091580190915901019690935901809332
:1002C000580181E090E0909357018093560108C057
:1002D0001092590110925801109257011092560134
:1002E000DF91CF911F910F91FF90EF90DF90CF9012
:1002F000BF90AF909F908F907F9008958F929F9224
:10030000AF92BF92CF92DF92EF92FF926091700016
:10031000709171008091680190916901681B790B5F
:10032000072E000C880B990B0E940C066B017C01B8
:100330006093800170938101809382019093830187
:1003400020915C0130915D0140915E0150915F010F
:100350000E94F504209168003091690040916A0084
:1003600050916B000E9498064B015C0120916C003B
:1003700030916D0040916E0050916F00C701B60141
:100380000E9498069B01AC01C501B4010E94F604CD
:1003900060937A0170937B0180937C0190937D013F
:1003A000C0925C01D0925D01E0925E01F0925F012B
:1003B0000E94D4059B0170936501609364016F3FB7
:1003C000710551F04CF08FEF90E0909365018093B0
:1003D00064012FEF30E013C021303F4F4CF481E037
:1003E0009FEF909365018093640121E03FEF16C079
:1003F0002091640130916501121613066CF48FEFA1
:1004000090E090937F0180937E01821B930B9093E9
:1004100061018093600119C033236CF421503F4F78
:1004200030937F0120937E018FEF90E090936101E4
:10043000809360010AC088EC90E090936101809302
:10044000600190937F0180937E01FF90EF90DF9099
:10045000CF90BF90AF909F908F900895BC01990F5F
:10046000880B990B0E940C0623ED3EED40E45FE300
:100470000E94980623E333E347EE51E40E94F6041A
:100480000E94D405CB010895CF93DF93EB0118169A
:1004900019061CF40E942E0208C0919581959109BD
:1004A0000E942E029195819591091C161D061CF43F
:1004B000CCBF949804C0C150DF4FCCBF949A18169B
:1004C00019061CF483BD959804C0959A81509F4FDE
:1004D00083BDDF91CF910895909361018093600176
:1004E00066277727681B790B70937F0160937E01E5
:1004F0000E9444020895BC0188279927861B970B08
:10050000909361018093600170937F0160937E01FD
:100510000E944402089560E070E080E090E00E9454
:10052000440208954F925F926F927F928F929F92B2
:10053000AF92BF92CF92DF92EF92FF921F93CF9331
:10054000DF93CDB7DEB7A4970FB6F894DEBF0FBE2A
:10055000CDBF5C018FE890E00E94720084E690E0DD
:100560000E946C02CE0101964C016C01F12C8F2D82
:100570000E945100F601918380838F2D0E945100CB
:10058000F60193838283F394F4E0CF0ED11C28E02C
:10059000F212EDCF88EE93E0A89EB001A99E700DF7
:1005A000B89E700D1124072E000C880B990B0E9429
:1005B0000C0620E030E040E250E40E9462050E9418
:1005C000D4053B01672B09F46FC08FE890E00E94CF
:1005D000720080E890E00E947200640110E0812FB8
:1005E0000E9451005601F601208131818217930744
:1005F00030F4812F0E945100F60191838083812F76
:100600000E945100F501228133812817390730F407
:10061000812F0E945100F501938382831F5FF4E0D4
:10062000CF0ED11C1830D9F621E0621A710869F694
:100630003BC0F401E080F180628173816E197F0913
:10064000072E000C880B990B0E940C06A301920147
:100650000E94980669A37AA38BA39CA3B701FF0C01
:10066000880B990B0E940C069B01AC0169A17AA131
:100670008BA19CA10E94F6040E94D405F60161930F
:1006800071936F01F4E08F0E911CA814B90489F6E0
:100690000E948B022FEF83ED90E321508040904029
:1006A000E1F700C0000013C040906000509061006E
:1006B00060906200709063000F2EF4E8CF2EF1E09E
:1006C000DF2EF02D5E01E1E2AE0EB11CB2CFA4969A
:1006D0000FB6F894DEBF0FBECDBFDF91CF911F9153
:1006E000FF90EF90DF90CF90BF90AF909F908F9052
:1006F0007F906F905F904F9008950E9449000E94F4
:100700005F000E94640080EB81BB88E087BB8BE9BF
:1007100090E00E94720080E890E00E94720082E007
:1007200090E00E9492028DEA90E00E94720080E8C0
:1007300090E00E947200CAE6D1E00E94B1008EEB08
:1007400090E00E947200609180017091810180911F
:100750008201909183010E94D405CB010E949400F4
:1007600080E890E00E947200209158013091590178
:100770008091640090916500821793075CF40E9459
:100780008B022FEF83E294EF215080409040E1F7FD
:1007900000C000008E859F85019709F04CC066E976
:1007A00070E086E990E00E9444022FEF81EE94E031
:1007B000215080409040E1F700C000000E94B1004D
:1007C00080916801909169018436910509F463C0B4
:1007D0008091560190915701019759F433C086ECEE
:1007E00090E00E94720086E990E00E946C020E94F4
:1007F000B1008E819F81892B91F788859985892BFE
:1008000071F786EC90E00E94720086E990E00E9409
:100810006C020E94B1008E819F81019791F70E9426
:100820007E0160917E0170917F01809160019091C5
:1008300061010E94440280916801909169018436AF
:10084000910549F10E947E0160917E0170917F01C6
:1008500080916001909161010E9444028AED90E0D4
:100860000E94720080916001909161010E94940049
:1008700080E890E00E94720081EE90E00E94720099
:1008800080917E0190917F010E94940080E890E029
:100890000E94720052CF8091660190916701813071
:1008A000910551F58091620190916301892B09F0C6
:1008B00079C089EE90E00E9472008E819F8101973D
:1008C00071F08AEF90E00E94720086E990E00E9449
:1008D0007B020E94B1008E819F81019791F70E9457
:1008E0007E0160917E0170917F0180916001909105
:1008F00061010E94440221CF892B09F053C08091ED
:100900006201909163018130910519F58DE091E0CC
:100910000E9472008E819F81019771F086EC90E0B9
:100920000E94720086E990E00E946C020E94B10071
:100930008E819F81019791F70E947E0160917E01D7
:1009400070917F0180916001909161010E94440249
:10095000F4CE892B39F58FE191E00E9472008091ED
:100960006801909169018436910579F468EC70E032
:1009700088EC90E00E9444020E94B10080916801DE
:10098000909169018436910589F30E947E016091FE
:100990007E0170917F0180916001909161010E94C0
:1009A0004402CBCE8CE291E00E9472008E819F8146
:1009B000019771F080E491E00E94720086E990E076
:1009C0000E946C020E94B1008E819F81019791F775
:1009D0000E947E0160917E0170917F018091600193
:1009E000909161010E944402A8CE5058BB27AA27CB
:1009F0000E940D050C945E060E94500638F00E947D
:100A0000570620F039F49F3F19F426F40C944D0654
:100A10000EF4E095E7FB0C944706E92F0E946F0661
:100A200058F3BA17620773078407950720F079F423
:100A3000A6F50C9491060EF4E0950B2EBA2FA02D7E
:100A40000B01B90190010C01CA01A0011124FF277B
:100A5000591B99F0593F50F4503E68F11A16F04076
:100A6000A22F232F342F4427585FF3CF4695379575
:100A70002795A795F0405395C9F77EF41F16BA0B3A
:100A8000620B730B840BBAF09150A1F0FF0FBB1FE8
:100A9000661F771F881FC2F70EC0BA0F621F731F31
:100AA000841F48F4879577956795B795F7959E3F8E
:100AB00008F0B0CF9395880F08F09927EE0F97951F
:100AC000879508950E9476050C945E060E9457064D
:100AD00058F00E94500640F029F45F3F29F00C9432
:100AE000470651110C9492060C944D060E946F0615
:100AF00068F39923B1F3552391F3951B550BBB274D
:100B0000AA2762177307840738F09F5F5F4F220F91
:100B1000331F441FAA1FA9F335D00E2E3AF0E0E888
:100B200032D091505040E695001CCAF72BD0FE2FD2
:100B300029D0660F771F881FBB1F26173707480766
:100B4000AB07B0E809F0BB0B802DBF01FF2793581E
:100B50005F4F3AF09E3F510578F00C9447060C9495
:100B600092065F3FE4F3983ED4F3869577956795B8
:100B7000B795F7959F5FC9F7880F911D9695879553
:100B800097F90895E1E0660F771F881FBB1F621772
:100B900073078407BA0720F0621B730B840BBA0B30
:100BA000EE1F88F7E09508950E94DB056894B11167
:100BB0000C94920608950E94770688F09F5798F04B
:100BC000B92F9927B751B0F0E1F0660F771F881F52
:100BD000991F1AF0BA95C9F714C0B13091F00E946C
:100BE0009106B1E008950C949106672F782F88271D
:100BF000B85F39F0B93FCCF3869577956795B39593
:100C0000D9F73EF490958095709561957F4F8F4F01
:100C10009F4F0895E89409C097FB3EF49095809506
:100C2000709561957F4F8F4F9F4F9923A9F0F92FB2
:100C300096E9BB279395F695879577956795B79530
:100C4000F111F8CFFAF4BB0F11F460FF1BC06F5F16
:100C50007F4F8F4F9F4F16C0882311F096E911C028
:100C6000772321F09EE8872F762F05C0662371F049
:100C700096E8862F70E060E02AF09A95660F771F5D
:100C8000881FDAF7880F9695879597F9089597F951
:100C90009F6780E870E060E008959FEF80EC089522
:100CA00000240A941616170618060906089500244B
:100CB0000A9412161306140605060895092E0394C5
:100CC000000C11F4882352F0BB0F40F4BF2B11F439
:100CD00060FF04C06F5F7F4F8F4F9F4F089557FD98
:100CE0009058440F551F59F05F3F71F04795880F9A
:100CF00097FB991F61F09F3F79F087950895121631
:100D000013061406551FF2CF4695F1DF08C01616DC
:100D100017061806991FF1CF86957105610508948D
:100D20000895E894BB2766277727CB0197F90895A4
:100D30000E94AB060C945E060E94500638F00E949A
:100D4000570620F0952311F00C9447060C944D069D
:100D500011240C9492060E946F0670F3959FC1F3C4
:100D6000950F50E0551F629FF001729FBB27F00D59
:100D7000B11D639FAA27F00DB11DAA1F649F6627AE
:100D8000B00DA11D661F829F2227B00DA11D621FFD
:100D9000739FB00DA11D621F839FA00D611D221FB7
:100DA000749F3327A00D611D231F849F600D211D9B
:100DB000822F762F6A2F11249F5750409AF0F1F01E
:100DC00088234AF0EE0FFF1FBB1F661F771F881F87
:100DD00091505040A9F79E3F510580F00C94470672
:100DE0000C9492065F3FE4F3983ED4F38695779592
:100DF0006795B795F795E7959F5FC1F7FE2B880F2D
:100E0000911D9695879597F9089597FB072E16F4EF
:100E1000009407D077FD09D00E94190707FC05D080
:100E20003EF4909581959F4F0895709561957F4F01
:100E30000895AA1BBB1B51E107C0AA1FBB1FA61721
:100E4000B70710F0A61BB70B881F991F5A95A9F773
:100E500080959095BC01CD010895BB274A3031F4AF
:100E6000992322F4BDE2909581959F4F0C94390708
:100E7000BB27FB015527AA27880F991FAA1FA41774
:100E800010F0A41B83955051B9F7A05DAA3308F068
:100E9000A95DA193009779F7B111B1931192CB019C
:100EA0000C945207DC01FC01672F71917723E1F765
:100EB000329704C07C916D9370836291AE17BF0727
:080EC000C8F30895F894FFCF78
:100EC8003333B33E06000F000000644200003C428A
:100ED80007004163757465206465746563746564AF
:100EE8000A0041637574652052657365740A00438E
:100EF800616C6962726174696E670043616C6962F2
:100F0800726174696F6E2053746172740043616C0E
:100F18006962726174696F6E20446F6E6500455234
:100F2800524F523A200052696768742041637574C1
:100F380065205475726E696E67004C6566743A2058
:100F48000052696768743A20004C656674204163F2
:100F5800757465205475726E0A004C65667420417C
:100F680063757465205475726E696E67005269679F
:100F78006874204163757465205475726E0A004C5C
:100F8800696E65206761702072756E0052696768C6
:100F9800742064656661756C74207475726E0A00DD
:100FA80052696768742064656661756C742054754D
:060FB800726E696E670015
:00000001FF
